:020000040800F2
:10000000F0D1012069020008631C0008851800086F
:10001000611C00084B050008C541000800000000F5
:10002000000000000000000000000000B5270008EC
:100030004D05000800000000DF1D0008C127000872
:10004000830200088302000883020008830200087C
:10005000830200088302000883020008830200086C
:10006000830200088302000883020008830200085C
:10007000830200088302000883020008830200084C
:10008000830200088302000883020008830200083C
:10009000830200088302000883020008830200082C
:1000A000830200088302000883020008830200081C
:1000B000830200088302000883020008830200080C
:1000C00083020008830200088302000883020008FC
:1000D00083020008830200088302000883020008EC
:1000E00083020008830200088302000883020008DC
:1000F00083020008830200088302000883020008CC
:1001000083020008830200088302000883020008BB
:1001100083020008830200088302000883020008AB
:10012000830200088302000883020008830200089B
:10013000830200088302000883020008830200088B
:10014000830200088302000883020008651C00087F
:10015000830200088302000883020008830200086B
:10016000830200088302000883020008830200085B
:1001700083020008830200088302000800000000D8
:10018000830200088302000800F002F800F05CF827
:100190000AA090E8000C82448344AAF10107DA45E2
:1001A00001D100F051F8AFF2090EBAE80F0013F0D8
:1001B000010F18BFFB1A43F001031847A4400000C9
:1001C000D44000000A444FF0000C10F8013B13F03B
:1001D000070408BF10F8014B1D1108BF10F8015BA0
:1001E000641E05D010F8016B641E01F8016BF9D193
:1001F00013F0080F1EBF10F8014BAD1C0C1B09D1EA
:100200006D1E58BF01F801CBFAD505E014F8016B5B
:1002100001F8016B6D1EF9D59142D6D370470000ED
:100220000023002400250026103A28BF78C1FBD8FF
:10023000520728BF30C148BF0B6070471FB503F09D
:10024000EFFF1FBD10B510BD00F046F91146FFF7D6
:10025000F5FF03F0C9FF00F064F903B4FFF7F2FF04
:1002600003BC00F06BF900000948804709480047CB
:10027000FEE7FEE7FEE7FEE7FEE7FEE7FEE7FEE756
:10028000FEE7FEE704480549054A064B70470000B3
:100290005928000889010008F0CB0120F0D1012085
:1002A000F0CD0120F0CD012053EA020C00F069806E
:1002B0002DE9F04B4FF00006002B1FBFB3FA83F57A
:1002C00003FA05F424FA05F65E4012BF1643B2FAAB
:1002D00082F502FA05F4C5F120051EBF22FA05FCDD
:1002E00044EA0C04203556EA044C4FEA144418BF83
:1002F000641C4FF000084FF00009904271EB030CB2
:1003000039D3002919BFB1FA81F701FA07F6B0FA1B
:1003100080F700FA07F6C7F120071EBF20FA07FC96
:1003200046EA0C062037B6FBF4FCA7EB0507103FA6
:1003300007F01F0BCBF120060CFA0BFB2CFA06F68C
:1003400044BFB3460026202FA4BF5E464FF0000BEB
:100350005BEA060C08BF4FF0010B19EB0B09ABFB76
:10036000027C48EB0608C01B06FB02CC0BFB03CC4F
:1003700071EB0C01C1E70B46024641464846BDE819
:10038000F08B13B54FF000004FF00001AFF3008089
:10039000BDE81C407047032A40F2308010F0030C87
:1003A00000F0158011F8013BBCF1020F624498BFC8
:1003B00011F801CB00F8013B38BF11F8013BA2F165
:1003C000040298BF00F801CB38BF00F8013B11F0E0
:1003D000030300F02580083AC0F0088051F8043B80
:1003E000083A51F804CBA0E80810F5E7121D5CBFED
:1003F00051F8043B40F8043BAFF30080D20724BF20
:1004000011F8013B11F801CB48BF11F8012B24BFB3
:1004100000F8013B00F801CB48BF00F8012B704702
:1004200010B5203AC0F00B80B1E81850203AA0E88F
:100430001850B1E81850A0E81850BFF4F5AF5FEAC3
:10044000027C24BFB1E81850A0E8185044BF18C976
:1004500018C0BDE810405FEA827C24BF51F8043B1D
:1004600040F8043B08BF7047D20728BF31F8023B71
:1004700048BF11F8012B28BF20F8023B48BF00F805
:10048000012B70474FF0000200B513469446964684
:10049000203922BFA0E80C50A0E80C50B1F1200197
:1004A000BFF4F7AF090728BFA0E80C5048BF0CC045
:1004B0005DF804EB890028BF40F8042B08BF7047A3
:1004C00048BF20F8022B11F0804F18BF00F8012B15
:1004D0007047704770477047754600F02BF8AE467E
:1004E00005006946534620F00700854618B020B540
:1004F000FFF7C8FEBDE820404FF000064FF00007B0
:100500004FF000084FF0000B21F00701AC46ACE8BB
:10051000C009ACE8C009ACE8C009ACE8C0098D4628
:10052000704710B50446AFF300802046BDE8104088
:10053000FFF793BE004870478CCB0120014918207B
:10054000ABBEFEE7260002007047FEE7704772B6BA
:10055000FEE7000070B5044600F006F90546601C91
:1005600002D004480078044400F0FEF8401BA0428A
:10057000FAD370BD70C001202DE9F84FDFF8BCA19F
:100580000022012503264FF00F090AF1040BAAF1FE
:10059000040E00BF0B6805FA02F42340A34270D199
:1005A0000F7907F00307012F01D0022F16D18768BA
:1005B0004FEA420806FA08FC27EA0C07D1F80CC0FB
:1005C0000CFA08FC4CEA070CC0F808C04768A743BF
:1005D0000C79C4F3001494403C4344600C79E44328
:1005E000A4070AD0C4684FEA420C06FA0CF7BC43D1
:1005F0008F6807FA0CF72743C7600C7904F00304EF
:10060000022C12D1D40800EB840CDCF820405707F0
:10061000FF0E09FA07F824EA0804D1F8108008FA56
:1006200007F848EA0408CCF8208004684FEA420C36
:1006300006FA0CF7BC430F7907F0030707FA0CF72B
:10064000274307604C6814F4403F70D03C4C276847
:1006500047F480472760246822F0030704F48044AD
:100660000094384C07EB040CDCF8084897074FEA75
:10067000177809FA08F7BC43334FB84202D1002774
:1006800024E054E0314FB84201D101271EE0304F41
:10069000B84201D1022719E02E4FB84201D10327F9
:1006A00014E02D4FB84201D104270FE02B4FB84280
:1006B00001D105270AE02A4FB84201D1062705E0FB
:1006C000284FB84201D1072700E0082707FA08F7AA
:1006D0002743CCF80878DAF800405746D1F804C030
:1006E0009C435FEACC2C00D51C433C60DBF8004007
:1006F0005F46D1F804C09C435FEA8C2C00D51C43B4
:100700003C60DEF800407746D1F804C09C435FEAC5
:100710008C3C00D51C433C60084F083F3C68D1F836
:1007200004C09C435FEACC3C00D51C433C60521C97
:10073000102AFFF42FAFBDE8F88F0000083C0140FD
:1007400044380240003001400000024000040240F2
:1007500000080240000C0240001002400014024059
:1007600000180240001C02400148806870470000E9
:1007700070C001200248816802781144816070478E
:1007800070C001200B4810B5016841F40071016090
:10079000016841F480610160016841F48071016089
:1007A000032000F06FF80F2000F006F800F024F8A6
:1007B000002010BD003C024070B50D4D04464FF4C2
:1007C0007A712878B1FBF0F00A490968B1FBF0F0C2
:1007D00001F044F848B9102C07D200222146501EDF
:1007E00000F030F800206C6070BD012070BD00008A
:1007F00070C001207CC001200A4808B5016841F49E
:1008000080410160006800F4804000900548001FAE
:10081000016841F080510160006800F08050009054
:1008200008BD000044380240002809DB00F01F0228
:10083000012191404009800000F1E020C0F8001142
:1008400070470000F0B40E4B1B680C46C3F3022344
:10085000C3F10705042D00D90425191D072901D26C
:10086000002300E0DB1E012606FA05F1491E2140A7
:1008700099409E40761E16403143F0BC03F0A3BC65
:100880000CED00E0064900F0070208684FF6FF0390
:10089000184040EA0220034A1043086070470000F5
:1008A0000CED00E00000FA0570470068416200208E
:1008B0007047F0B50368586A39B19C6A4FF4827684
:1008C00000EB144400204D1E0AE040EA024098620A
:1008D0000FE006EB8007DF59401C04EB1744C0B261
:1008E000A842F6D344EA02404FF4807202EB810141
:1008F00058500020F0BDD0F8080502F001BA01EB15
:10090000C10200EB8202D0F80805D26C02F056B9A1
:1009100001EBC10200EB8202D0F80805D2F88C226C
:1009200002F0A7B9D0F8080502F0ECB90A0601F008
:100930000F0101EBC10100EB810101D53C3101E068
:1009400001F51F71006803F085BA70B504460B0607
:1009500001F00F0000EBC00104EB81014FF0010238
:100960004FF0000503D581F83D203C3103E081F8CC
:100970007D5201F51F71087094F8BC04012808D05D
:1009800084F8BC24206802F01FFF84F8BC540020C7
:1009900070BD022070BD70B5044601F00F006268A2
:1009A000904201D9012070BD0B0601F00F0101EB4F
:1009B000C10104EB81014FF001024FF0000503D5A6
:1009C00081F83D203C3103E081F87D5201F51F7133
:1009D0008D70087094F8BC04012808D084F8BC24F9
:1009E000206803F0EDF884F8BC54002070BD0220AC
:1009F00070BD10B5044690F8BC0401280AD001204F
:100A000084F8BC04080607D501F00F01206803F044
:100A100095FA04E0022010BD206803F071FA00206E
:100A200084F8BC0410BD01F00F0101EBC10100EB23
:100A30008100D0F89C0270472DE9F04104460F0672
:100A400001F00F0000EBC00104EB81014FF0010643
:100A50004FF0000503D581F83D603C3103E081F89B
:100A60007D5201F51F710870CA600B714A7802B19E
:100A70000881022B00D14D7194F8BC04012809D0E3
:100A800084F8BC64206802F0F7FD284684F8BC5462
:100A9000BDE8F0810220FBE770B50C4601F00F05C0
:100AA00005EBC50100EB8101C1F89432C1F88C223D
:100AB0000023C1F89C3281F87D3281F87C520369B1
:100AC00001F51F71012B00D14A612207027C0068E9
:100AD00003D003F0CDF8002070BD02F0B7FFFAE7B5
:100AE00070B504460D4601F00F006168884201D9D7
:100AF000012070BD29064FF000064FF0010207D516
:100B000000EBC00104EB810181F83D203C3107E09E
:100B100005EBC50104EB810181F87D6201F51F71D0
:100B20008A70087094F8BC04012807D084F8BC24AB
:100B3000206803F071F8280702D007E0022070BD9A
:100B4000217C04F2C442206803F00EF884F8BC64EF
:100B5000002070BD70B50C4601F00F0505EBC50116
:100B600000EB81014B65CA640023CB65012381F84A
:100B70003D3001F83C5F0369012B00D14A61220737
:100B8000027C006803D003F073F8002070BD02F00F
:100B90005DFFFAE72DE9FC5F05680446284603F08F
:100BA000FAF900287DD1206803F021FA002878D0D6
:100BB000D5F80808C0F30D20C4F8FC04206803F041
:100BC00016FA800704D52068416901F002014161ED
:100BD000206803F00CFAC10604F2C440009034D53A
:100BE0002068816921F0100181612F6A07F00F00F0
:100BF00000EBC00004EB8006C7F3434006F51F7608
:100C0000022802D0062811D01AE047F6F0700742F9
:100C100016D0C7F30A1217462846316903F0EBF9DC
:100C2000306938443061306A384408E00822284688
:100C3000009903F0E0F9306AC7F30A110844306202
:100C40002068816941F010018161206803F0CFF9CB
:100C500000034FF0080B4FF0000A4FF001097CD55C
:100C60000026206803F0A2F9074674E0F80770D068
:100C7000F1B2206803F0B3F98046C00707D005EB56
:100C80004611C1F8089B3146204600F0F1FF5FEAAB
:100C9000087024D505EB4611C1F808BB2068016C2B
:100CA00000E025E200EB46100191D0F8082BFC4B48
:100CB000994205D9110403D54FF40041C0F8081B2F
:100CC000204600F005FBF6490198884207D92069C3
:100CD000012804D120680121009A02F045FF5FEA53
:100CE000C86004D505EB46111020C1F8080B5FEA77
:100CF00088701DD56869000605D5D5F8040840F44C
:100D00008061C5F8041806EBC60004EB800090F87B
:100D10007F1200F51F70012905D180F803A0F1B200
:100D2000204600F0EBF905EB46110220C1F8080B54
:100D30005FEA886004D505EB46102021C0F8081B47
:100D40005FEA884005D505EB46104FF40051C0F826
:100D5000081B7F08761C002F88D1206803F047F914
:100D600040036FD5206803F01AF90746002667E0B4
:100D7000F80763D0F1B2206803F01FF98046C0077E
:100D800023D006F00F0209FA02F0D5F83428824386
:100D9000C5F8342805EB4610C0F8089920690128E9
:100DA0000FD106EBC60004EB8000D0E912211144FC
:100DB000C16436B9606D20B920680121009A02F043
:100DC000D3FEF1B22046FFF79AFD5FEA087003D523
:100DD00005EB4611C1F808B95FEAC86004D505EB18
:100DE00046111020C1F808095FEA486004D505EBF8
:100DF00046104021C0F808195FEA887017D53146BF
:100E0000284603F09BF806EBC60004EB800090F840
:100E10003F103C30012905D180F803A0F1B22046F3
:100E200000F068F905EB46110220C1F808095FEAF5
:100E3000086003D53146204600F080FF7F08761C0D
:100E4000002F95D1206803F0D2F8002811DAD5F8E8
:100E5000040820F00101C5F8041894F8F4040128EE
:100E60002BD0204600F018FA2068416901F00041BB
:100E70004161206803F0BBF800050BD5D5F80808E0
:100E8000C00702D0204600F04BFA2068416901F407
:100E900000614161206803F0AAF8C00466D5D5F866
:100EA000040820F00100C5F804081021206803F0B0
:100EB00045F800214FF67F321FE084F8F4A40021AA
:100EC0002046FFF7F1FCCFE705EB4110C0F80829F9
:100ED000D0F8003923F40013C0F80039C0F8082B0B
:100EE000D0F8003B23F40013C0F8003BD0F8003BDF
:100EF00043F00063C0F8003B491C60688842E3D8B7
:100F0000D5F81C0840F00111C5F81C18206B00280A
:100F100028460DD0D0F8840840F00B01C5F884189D
:100F2000D5F8440840F00B012846C5F844180DE0F8
:100F3000D0F8140842F22B010843C5F81408D5F87C
:100F4000100840F00B012846C5F81018D0F800082A
:100F500020F4FE61C5F80018217C2068009A02F098
:100F600003FE2068416901F480514161206803F06B
:100F70003EF8800415D5206802F0BEFB206802F020
:100F8000FDFFE06000F07EFA0146227B206803F05E
:100F900091F8204600F06AF92068416901F4005197
:100FA0004161206803F023F8000707D5204600F0D0
:100FB00077F92068416901F008014161206803F078
:100FC00016F8000616D5A86920F08000A861012651
:100FD0000DE000BF06EBC60004EB800090F87F0236
:100FE000012803D1F1B22046FFF7A0FC761C60680F
:100FF000B042EFD8206802F0FAFFC00221D50126E6
:101000004F4616E005EB4610D0F8001906EBC60077
:1010100004EB800090F84020012A09D1002907DA6A
:1010200080F83F70F0B240F080012046FFF77EFC70
:10103000761C6068B042E5D82068416901F48011EF
:101040004161206802F0D3FF800234D501204B4675
:1010500029E000BF05EB4011D1F8001B00EBC002F6
:1010600004EB820696F88022012A1BD1002919DAA6
:1010700094F8FC2401F4803102F00102914211D174
:1010800086F87F32A96941F08002AA616969090680
:1010900008D4D5F8040840F40070C5F8040805E049
:1010A0000A30544F401C61688142D3D8206841699E
:1010B00001F400114161206802F099FF400007D55A
:1010C0002046FFF718FC2068416901F0804141612A
:1010D000206802F08CFF40070AD520684568680741
:1010E00002D52046FFF71EFC206841682943416075
:1010F000BDE8FC9FD0F8080501F060BED0F80805F7
:1011000001F070BE2DE9F0418AB0040005D094F8DA
:10111000BD042668002520B108E001200AB0BDE822
:10112000F08184F8BC54204600F05EF8032084F877
:10113000BD04F06BC00500D42561206802F080FC7E
:1011400004F11001282288466846FFF769F994E8FF
:101150000F0002F0DFFA0226C8BB0021206802F06F
:1011600069FF002001270EE000EBC00104EB8101C4
:1011700081F83D7001F83C0F08810D71CD600D6163
:10118000401CC0B28D6161688142EDD8002011E041
:1011900000EBC00104EB810181F87D5281F87C02F3
:1011A00081F88052C1F88852C1F88C52401CC0B2FC
:1011B000C1F8945261688142EAD8282241466846C3
:1011C000FFF72EF994E80F0002F080FB10B184F8CD
:1011D000BD64A2E784F8385084F8BD74206802F03A
:1011E00067FB00209AE7000010B586B00446142182
:1011F0006846FFF747F92068B0F1A04F2FD1194892
:101200000021026842F001020260006800F0010063
:1012100005904FF4C05000900220CDE90101032059
:1012200003900A20049069460F48FFF7A5F90D487E
:10123000001D016841F0800101600A481430016816
:1012400041F4804101600068002200F48040059074
:1012500011464320FFF7F6FA4320FFF7E5FA06B000
:1012600010BD0000303802400000024070B5044656
:10127000C068012570B1022801D0FFF768F929463E
:10128000D4F8080501F01CFED4F80805BDE870404C
:1012900001F0D1BD0025F2E7D0F8080501F0F9BD55
:1012A000D0F8080501F0FFBD10B5044690F8BC0465
:1012B00001280BD0012084F8BC0484F83810206881
:1012C00002F0E6FE002084F8BC0410BD022010BD30
:1012D000D0F8082500F2C441104601F0FDBD10B55C
:1012E0000446006894F8BC14012906D0012184F852
:1012F000BC14A16A012902D008E0022010BDA16936
:10130000012903D0816B41F480318163206802F0B0
:10131000F0FD206802F0BEFA002084F8BC0410BD85
:1013200010B50446D0F8080501F018FE2068D0F882
:10133000001E41F00101C0F8001E206A002804D000
:101340000248016841F00601016010BD10ED00E0A7
:101350002DE9F0470E46050065D0DFF81481D8F876
:101360000000F7B200F00700B04207D288F8007022
:10137000D8F8000000F00700B04254D128683D4C76
:10138000810712D5400703D5206840F4E050206063
:101390002878000703D5206840F46040206020686A
:1013A000A96820F0F000084320602878C0072DD0FD
:1013B000304968680839012812D0022813D0032860
:1013C00011D00968890700292DDA216821F003016D
:1013D00001432160FFF7C8F9814641F2883A0EE0E7
:1013E00009688903EFE709688901ECE7FFF7BCF9B1
:1013F000A0EB0901514502D90320BDE8F087206820
:10140000696800F00C00B0EB810FEFD1D8F8001044
:10141000404601F00701B14207D90770006800F0AB
:101420000700B04201D00120E7E72878400705D542
:101430002068E96820F4E05008432060287800071D
:1014400006D52068296920F4604040EAC100206088
:1014500000F01EF82168084AC1F30311515CC8402E
:101460000649086006480068FFF7A6F90020C4E7AF
:10147000003C0240083802404E4200087CC0012077
:1014800074C0012001480068704700007CC0012042
:10149000154810B5006810F00C02144813D0411024
:1014A000042A0FD0082A0ED10F4C241F226823686B
:1014B00002F03F025B0207D52068C0F38810A0FB52
:1014C000010106E0084610BD2168C1F38811A1FBA7
:1014D00000010023FEF7E8FE2168C1F30141491C29
:1014E0004900B0FBF1F010BD083802400024F400C0
:1014F0002DE9F84F04006ED02078DFF84C93C00738
:10150000A9F104054AD009F104000168C1F3810181
:10151000012908D00068C0F3810002280AD1D9F857
:101520000000400206D52868800337D5606800288F
:10153000E1D033E06068B0F5803F10D0B0F5A02F67
:10154000286810D020F480302860286820F480209B
:1015500028606068A8B1FFF707F906460DE0286823
:1015600040F48030F4E740F480202860F7E700BFC3
:10157000FFF7FAF8801B642873D828688003F7D532
:101580000CE0FFF7F1F8064605E000BFFFF7ECF8C6
:10159000801B6428F0D828688003F7D42078DFF80F
:1015A000AC8280074FF0000A3ED5A748001D0168B5
:1015B00011F00C0F08D00068C0F3810002280BD195
:1015C000D9F80000400207D42868800716D5E068E3
:1015D000012800D112E033E1E068B8B10120C8F879
:1015E0000000FFF7C1F8064605E000BFFFF7BCF8B2
:1015F000801B0228C0D828688007F7D52868216991
:1016000020F0F80040EAC10028600DE0C8F800A012
:10161000FFF7AAF8064604E0FFF7A6F8801B0228A9
:101620001FD828688007F7D42078000722D5864F76
:1016300087486169703771B101210160FFF794F843
:10164000064604E0FFF790F8801B022809D83868A6
:101650008007F7D50EE0C0F800A0FFF785F8064632
:1016600005E082E0FFF780F8801B02287DD838680B
:101670008007F7D42078400768D5DFF8CCB1002781
:101680000BF13C0BDBF80000C0000BD4DBF80010C2
:1016900041F08051CBF80010DBF80000012700F08A
:1016A000805000906B4E3068C00510D4306840F414
:1016B00080703060FFF758F8009005E0FFF754F8AD
:1016C0000099401A022850D83068C005F6D55E4E01
:1016D000A0686C3601280FD00528306810D020F0A3
:1016E00001003060306820F004003060A068B8B1BC
:1016F000FFF73AF800900FE0306840F00100F4E79F
:1017000040F004003060F7E7FFF72EF80099411A27
:1017100041F28830814266D830688007F4D50EE007
:10172000FFF722F8009007E0FFF71EF80099411A32
:1017300041F28830814256D830688007F4D42FB106
:10174000DBF8001021F08051CBF80010A069C8B37D
:101750003D49091D0968C1F3810102294AD00228C7
:10176000504607D0C8F8600000E03CE0FEF7FCFF00
:1017700004463BE04746C8F86000FEF7F5FF064622
:1017800005E000BFFEF7F0FF801B02282BD8286879
:101790008001F7D4D4E907010843A16A2E4A490819
:1017A00002EB0141626A41EA8211084394F82C106D
:1017B00040EA0161C9F8001001203866FEF7D4FF45
:1017C000044606E03EE000BFFEF7CEFF001B022805
:1017D00009D828688001F7D534E000BFFEF7C4FFC0
:1017E000001B022802D90320BDE8F88F2868800179
:1017F000F4D427E00128F7D0D9F80000E26900F41A
:10180000800191421CD1226A00F03F01914217D120
:1018100047F6C071626A0140B1EB821F10D1A26A23
:101820004FF0FF3300F4403103EB5202B1EB024FB3
:1018300006D194F82C1000F07060B0EB016F01D06D
:101840000120D1E70020CFE70438024000004742E2
:10185000800E4742007000400000FFFF10B5401EA0
:10186000B0F1807F01D3012010BD4FF0E024606112
:101870000F21601702F0A7FC0020A0610720206163
:10188000002010BDFEE70000F0B500230A2430253B
:1018900037261F4611E000BFB4EB107F02D905EBDD
:1018A000107C01E006EB107C01F813C001EB430C47
:1018B00000015B1C8CF80170DBB29342ECD3F0BDED
:1018C0002DE9F0410546D0F8D40205EB8000D0F8B0
:1018D000C042002C1ED094F81C020F4E40B9D4F820
:1018E000180228B1607A18B93178284601F024FB33
:1018F0000A4F2846397801F01FFB607A022809D187
:101900003978284601F018FB31782846BDE8F041C7
:1019100001F012BBBDE8F081BDC00120BCC00120B8
:1019200070B50546D0F8D40205EB8000D0F8C0426F
:10193000002C65D0D4F81402C4F83402D4F818028C
:10194000C4F838022F480178284601F0F3F91F281F
:101950000DD12D49D4F81002884208D194F81D12F7
:10196000012904D894F81E0208B1102809D994F866
:101970001D1220230522284600F0A8FD02206072D7
:1019800009E004F21F22284600F080FA0028207A9D
:1019900008DA052804D02846BDE87040FFF790BF5C
:1019A000012128E002282BD0012829D0032827D0A4
:1019B000E668FEB1D5F8D412284605EB810104F1A2
:1019C0001002D1F8C01200291AD0D1F81832B3424F
:1019D00000D33346D1F83842A41BC1F83842002462
:1019E00081F83C4204240C7208490978BDE8704033
:1019F00001F0BDBA00212846BDE8704000F0DCB817
:101A000070BD0000BDC0012055534243BCC0012041
:101A100010B50446D0F8D40204EB8000D0F8C00220
:101A2000002818D0407A022809D0090613D50128C9
:101A300011D02046BDE81040012100F0BDB8064895
:101A40000178204601F078FA044801782046BDE884
:101A5000104001F071BA10BDBCC00120BDC0012012
:101A600010B50446D0F8D40204EB8000D0F8C022B0
:101A7000002A17D0107A022805D0032801D00428A4
:101A800010D1002109E092F81D12204602F21F2217
:101A900000F0FCF9002805DA01212046BDE81040DD
:101AA00000F08AB810BD10B50446D0F8D40204EB9B
:101AB0008000D0F8C022002A17D0107A80B1012807
:101AC00013D192F81D12204602F21F2200F0DEF917
:101AD00000280ADA2046BDE81040012100F06CB869
:101AE0002046BDE81040FFF71BBF10BDD0F8D41250
:101AF00000EB8100D0F8C002002801D00021017263
:101B00007047000070B50546D0F8D40205EB8000A0
:101B1000D0F8C042002C24D000202072607284F8DB
:101B2000610284F8600284F86202D5F8D40205EB01
:101B30008000D0F8C402016800208847094E28467A
:101B4000317801F0EEF808480178284601F0E9F80C
:101B500004F5047231782846BDE870401F2301F077
:101B600061B970BDBDC00120BCC0012070B5054683
:101B7000D0F8D40205EB8000D0F8C042002C16D07B
:101B8000002020720120607209480178284601F087
:101B900003F8084E2846317800F0FEFF04F5047281
:101BA00031782846BDE870401F2301F03BB970BD75
:101BB000BCC00120BDC0012070B50546D0F8D402DC
:101BC00005EB8000D0F8C042002C18D00C48C4F8B7
:101BD000300284F83C12002020720A480D2304F5DC
:101BE0000C720178284601F0C2F9074804F5047226
:101BF0001F2301782846BDE8704001F013B970BD7D
:101C000055534253BCC00120BDC0012010B5002275
:101C10000F49104800F0ADFF08B1FEF798FC0E49DF
:101C20000C4801F020FB08B1FEF791FC0B49094874
:101C300001F08AFA08B1FEF78AFC064801F096FB2B
:101C4000002803D0BDE81040FEF781BC10BD0000A5
:101C500000C001202CC1012084C0012050C00120FF
:101C6000FEE7FEE70148FEF795BF000080C60120B1
:101C70002DE9F04103680D4604461E6C03EB451147
:101C8000D1F8080BD4F810E04FF400474FF0200CC7
:101C900004F2C442BEF1010F09D0DFF898E07645A6
:101CA00039D1020432D500BFC1F8087B3FE0224B96
:101CB0005FEA007E04D59E4239D90004F4D436E0B0
:101CC0005FEA806E02D5C1F808CB30E010F0280F33
:101CD0002DD19E4201D90004E6D405EBC50004EBEA
:101CE0008000D1F8101BD0F89832C1F31201591AB4
:101CF000C0F89C1200F51F70ADB983691BB1026971
:101D0000114401610FE0012120680AE080060AD534
:101D1000C1F808CB07E035B9D4F8940218B900210E
:101D2000184601F021FFE9B22046FEF7F1FD002040
:101D3000BDE8F0810A31544F0A30544F2DE9F84F75
:101D40000E4601EBC60100EB810481460568616D1A
:101D5000E06D3C34884202D90120BDE8F88F081AB2
:101D6000E168814200D20846C01C870805EB46188E
:101D70001BE000BFA0EB010AE068504500D282469C
:101D80000AF10300870899F8100000901FFA8AF3FF
:101D9000F2B22846216902F001FA216901EB0A003A
:101DA0002061216A01EB0A002062D8F8180980B28C
:101DB000B84205D3216AA069814201D20028D9D155
:101DC000216AA069884208D806F00F0101208840E6
:101DD000D5F834188143C5F834180020BDE77047A2
:101DE00030B5D0F8D4424FF0FF3500EB8404D4F87E
:101DF000C04244B11A44D4F868329A4205D921232A
:101E0000052200F063FB284630BD002030BD0000F5
:101E100070B50446D0F8D402134604EB80024FF0AC
:101E2000FF35D2F8C00280B1D0F818627EB15E787A
:101E3000F60716D0997871B180290FD090F81D124D
:101E400024230522204600F041FB284670BD90F86F
:101E50001D122023F5E706220A490FE008220A494D
:101E60000CE0D2F8C42201EBC1011B79D26902EB6C
:101E700081010A79521D934200D81A4600F07CFB7A
:101E8000002070BDEAC00120F0C001202DE9F04122
:101E9000D0F8D4324FF0FF3600EB8303D3F8C052B2
:101EA00055B3137802270024252B70D00FDC1A2B92
:101EB00053D005DC0BB3032B23D0122B17D124E016
:101EC0001B2B26D01E2B3FD0232B10D15BE05A2B8F
:101ED0004ED006DC282B62D02A2B68D02F2B06D1BF
:101EE0006DE09E2B57D0A82B5DD0AA2B63D020236A
:101EF000052200F0EBFA6F7220E0BDE8F04100F03F
:101F00000BBBBDE8F04100F09DBABDE8F041FFF722
:101F10007FBF95F86232012B04D1137903F00303DC
:101F2000022B4FD0117901F00300012812D00228B2
:101F300007D0C84380070DD0EC6017E03046BDE8FD
:101F4000F08185F86272F7E7107918B1012085F801
:101F50006202F1E785F86242EEE71179172328461D
:101F6000172900D80B461A461D4909E02046E6E726
:101F7000117A1B2328461B2900D80B461A461949FB
:101F800000F0FAFAF2E7BDE8F04100F018BABDE857
:101F9000F04100F086B9BDE8F04100F0BDB9BDE800
:101FA000F04100F0CFB8BDE8F04100F021B9BDE844
:101FB000F04100F0F1BABDE8F04100F05DBB5278AD
:101FC000920704D52423052200F080FAB6E7D5E96C
:101FD0009B23FFF705FF0028B0DB2046EC60AEE74F
:101FE000F8C001200FC101202DE9F0470646D0F8C6
:101FF000D402884606EB80004FF0FF37D0F8C0428D
:10200000FCB1B4F86412D4F870524FF400724D432E
:10201000954200D31546B5FBF1F1D0F8C4028BB25E
:1020200004F11001D0F810C0D4F86C228946404663
:10203000E047002808DA112304224146304600F028
:1020400045FA3846BDE8F08710482B464A460178E5
:10205000304600F08CFFB4F86402D4F86C22B5FB73
:10206000F0F1B5FBF0F01144C4F86C12D4F8701222
:10207000081AC4F87002D4F83812A1EB0501C4F8AC
:10208000381201D1032020720020DBE7BCC0012000
:102090002DE9F0470746D0F8D402894607EB8000C7
:1020A0004FF0FF38D0F8C042FCB1B4F86412D4F855
:1020B00070624FF400754E43AE4200D32E46B6FB1D
:1020C000F1F1D0F8C4028BB204F11001D0F814C0C1
:1020D000D4F86C228A464846E047002808DA0323F1
:1020E00004224946384600F0F1F94046BDE8F08741
:1020F000B4F86402D4F86C22B6FBF0F11144C4F8D1
:102100006C12B6FBF0F1D4F87022531AC4F8703296
:10211000D4F83812A1EB0601C4F838120BD04343AF
:10212000AB4200D32B46064852460178384600F0B1
:1021300079FE0020DAE700213846FFF73DFDF8E799
:10214000BDC001202DE9F0410646D0F8D402154665
:1021500006EB80008846D0F8C0424FF0FF3754B3FA
:10216000217AC9BB94F81C12090630D594F8621282
:10217000022905D0D0F8C40281684046884730B1B2
:102180003A2302224146304600F0A0F913E0D5F888
:102190000200414600BA20F0FF0268790243C4F809
:1021A0006C22B5F8070043BA3046C4F87032FFF726
:1021B00017FE002802DA3846BDE8F081B4F8641250
:1021C000D4F870024843D4F81812884205D020236E
:1021D00094F81D120522D6E701E0022020724FF488
:1021E0000070E06041463046BDE8F041FFF7FCBEBC
:1021F0002DE9F0410646D0F8D402154606EB8000E2
:102200008846D0F8C0424FF0FF376CB3217A71BBDB
:1022100094F81C12090634D594F86212022905D0EC
:10222000D0F8C40281684046884730B13A23022280
:102230004146304600F04AF916E055F8020F414693
:1022400000BA20F0FF02E8780243C4F86C22686804
:1022500000BA20F0FF03E87903433046C4F8703237
:10226000FFF7BEFD002803DA3846BDE8F0810FE035
:10227000B4F86412D4F870024843D4F818128842B3
:1022800004D0202394F81D120522D2E702202072E8
:102290004FF40070E06041463046BDE8F041FFF782
:1022A000A3BE2DE9F0410546D0F8D4020F4605EB58
:1022B00080004FF0FF36D0F8C0424CB1D0F8C402D5
:1022C00004F51972111D436838469847E8B902E0D1
:1022D0003046BDE8F08194F86202022815D0D4F8A7
:1022E0006802401E010E2174010C6174010AA17480
:1022F000E074002020756075B4F86402010AA175CD
:10230000E0750820E0600020E3E73A230222394626
:10231000284600F0DBF8DBE72DE9F0410646D0F86F
:10232000D402154606EB80008846D0F8C0424FF034
:10233000FF374CB1D0F8C40204F51972111D43687F
:102340004046984790B902E03846BDE8F08194F8DD
:10235000620202280AD0D5F80A00697B00BA20F090
:10236000FF000843E060002001460AE03A23022211
:102370004146304600F0AAF8E6E72218401C1174E6
:10238000C0B2E2688242F8D8D4F86802401E020E59
:102390002275020C6275020AA275E07521766176DB
:1023A000B4F86402010AA176E076D5F80A00697BE8
:1023B00000BA20F0FF000843E0600020C5E72DE9E7
:1023C000FC410546D0F8D4020F4605EB80004FF0E3
:1023D000FF36D0F8C04244B1D0F8C4026A4601A921
:1023E00043683846984730BB02E03046BDE8FC8180
:1023F00094F8620202281ED0002001462218401CD8
:1024000080B211740C28F9D30820E0740198401EA2
:10241000020E2275020C6275020AA275E075022096
:1024200020766176BDF80000010AA176E0760C20E6
:10243000E0600020DAE73A2302223946284600F01D
:1024400045F8D2E730B5D0F8D4124FF0FF3400EBA6
:102450008101D1F8C01231B3D1F818322BB300206A
:1024600004460B18401CC0B21C741228F9D370200B
:1024700008740C20C87591F8600291F86132984296
:102480001CD001EBC003401C93F840528D7493F8AC
:1024900044520D7793F84532C0B24B7781F8600211
:1024A000042809D00AE0204630BD91F81D122023EF
:1024B000052200F00BF8F6E781F860421220C860B0
:1024C0001079122800D8C860002030BDD0F8D4128E
:1024D00000EB8100D0F8C00200281CD090F86112F7
:1024E00000EBC10181F8402290F8611200EBC101BC
:1024F00081F8443290F86122002100EBC20282F898
:10250000451290F86122521CD2B280F86122042A4E
:1025100001D180F8611270472DE9F0410546D0F8ED
:10252000D402884605EB80004FF0FF37D0F8C04258
:10253000E4B1D4F8181239B194F81D122023052201
:102540002846FFF7C3FF11E094F86212052602291E
:1025500005D0D0F8C40281684046884748B13A2384
:10256000022241462846FFF7B1FF26723846BDE8F1
:10257000F0810020E060FAE710B508B1C26007E022
:102580004FF0FF3010BD521E92B284188B5C237442
:10259000002AF8D1002010BD2DE9F0410546D0F801
:1025A000D402174605EB80008846D0F8C0424FF0B1
:1025B000FF36E4B3217A29B141462846BDE8F0410F
:1025C000FFF766BDD4F81812A1B394F81C120906DF
:1025D0003AD4D0F8C40281684046884728B13A23EB
:1025E0000EE02846FFF772FF21E0D5F8D40205EB94
:1025F0008000D0F8C402C1684046884718B127233C
:1026000002224146EDE7D7F80200414600BA20F029
:10261000FF0278790243C4F86C22B7F8070043BA86
:102620002846C4F87032FFF7DBFB002803DA304697
:10263000BDE8F08108E0B4F86402D4F87032434396
:10264000D4F81802984204D0202394F81D120522D1
:10265000C7E74FF40070834200D303460120207285
:10266000044804F110020178284600F0DBFB00204A
:10267000DEE70000BDC001202DE9F0470646D0F896
:10268000D402154606EB80008946D0F8C0424FF0D0
:10269000FF3884B3217A29B149463046BDE8F04776
:1026A000FFF7F6BCD4F8181219B194F81C120906F9
:1026B00007D594F81D12202305223046FFF706FFA8
:1026C00031E0D0F8C402816848468847052708B140
:1026D0003A230AE0D6F8D40206EB8000D0F8C40210
:1026E000C1684846884738B1272302224946304608
:1026F000FFF7ECFE277216E055F8020F494600BAC4
:1027000020F0FF02E8780243C4F86C22686800BA3F
:1027100020F0FF03E87903433046C4F87032FFF736
:102720005FFB002802DA4046BDE8F087B4F8640297
:10273000D4F870324343D4F818029842B9D14FF418
:102740000070834200D3034601202072044804F144
:1027500010020178304600F065FB0020E4E700003D
:10276000BDC00120C82008604FF400701080002018
:1027700070470020704700207047002070470020FD
:10278000704700000846044910B55B0201EB422186
:102790001A46FDF700FE10BD00020020044810B5E7
:1027A0005B0200EB42201A46FDF7F5FD10BD00006C
:1027B0000002002070470178407841EA002070470D
:1027C000FDF7D8BF30B593B030216846FDF75AFE0B
:1027D00014210CA8FDF756FE1D480025016841F0A4
:1027E00080510160006800F0805011901948016824
:1027F00041F4804101600068022400F4804011909F
:1028000001200090000401908001CDE906400420E1
:10281000C021CDE908010A9008200B906846FEF718
:1028200067FE08B172B6FEE70CA90F2081E83100FF
:102830004FF4A0500F904FF48050109003210CA83B
:10284000FEF786FD002801D072B6FEE713B030BD5A
:1028500040380240007000400248016841F47001B5
:102860000160704788ED00E010B5D0F8B822002470
:102870005268904700B10324204610BD00207047E5
:1028800000207047134610B50A46002100F0CAFA2E
:10289000002010BD134610B50A46002100F067FB6A
:1028A000002010BD10B50446802100F045FB2046F5
:1028B000BDE81040002100F03FBB10B50521C0F875
:1028C000941200231A46194600F0ACFA002010BDFD
:1028D00010B50223C0F8943282611346C2610A46E1
:1028E000002100F044FB002010BD10B50421C0F809
:1028F000941200231A46194600F039FB002010BD3F
:1029000010B50A46024903A000F003F9004810BDC3
:10291000000000204D534320436F6E66696700003E
:10292000122008800048704720C0012010B50A46D8
:10293000024903A000F0EDF8004810BD000000209F
:102940004D534320496E74657266616365000000F3
:1029500004200880004870471CC0012010B50A46BA
:10296000024903A000F0D5F8004810BD0000002087
:1029700053544D6963726F656C656374726F6E69F1
:102980006373000010B50A46024903A000F0C1F8C5
:10299000004810BD0000002053544D3332204D61DB
:1029A00073732053746F72616765000010B51A204D
:1029B00008800A480168001D0468001D00680818A6
:1029C00009D008220649FEF75FFF054904221031AD
:1029D0002046FEF759FF0248801E10BD107AFF1FE7
:1029E00036C00120F8B504460020ADF80000488844
:1029F0000D46010A08295FD2DFE801F05E040917DD
:102A00005E5E3C45D4F8B412207C0A6819E0207C54
:102A100002260028D4F8B80205D0C16A6846884763
:102A20000146467039E0816AF8E7C0B2062843D211
:102A3000DFE800F0030A1014181CD4F8B40242684E
:102A400005E0694690471CE0D4F8B402826892B36E
:102A5000207CF6E7D4F8B402C268F8E7D4F8B402F0
:102A60000269F4E7D4F8B4024269F0E7D4F8B4029A
:102A70008269ECE7207CF0B9D4F8B802416B684673
:102A80008847014609E0207CA8B9D4F8B802016B58
:102A900068468847014607204870EA888AB1BDF831
:102AA000000040B1824200D90246ADF80020204625
:102AB000FFF70EFFF8BDFFE729462046FFF7F2FEBD
:102AC000F8E72046FFF711FFF4E778B50E46428895
:102AD0000178002504468A4212D9ADF800100AE0B8
:102AE000694600F00FF84178052904D18178054640
:102AF000B14205D000256188BDF800209142EFD891
:102B0000284678BD0A8803781A440A800178084468
:102B1000704770B5002300281ED00025044602E04F
:102B20006D1CEDB2641C2678002EF9D1022404EB52
:102B3000450414801278CA545B1C0322CA54002432
:102B40005B1C06E0CA545B1CDAB28C54521CD3B234
:102B5000401C0278002AF5D170BD01004FF0000042
:102B600004D0012901D0022901D00320704701209F
:102B7000704778B10023C0F8B832C0F8C432C0F84A
:102B8000D03209B1C0F8B412012180F89C12027051
:102B900000F0D4B80320704710B5D0F8C802FDF794
:102BA000FAFEBDE81040FFF7D8BF10B5D0F8C80254
:102BB000FDF7CBFEBDE81040FFF7CFBF2DE9F04198
:102BC00017460446002521B194F89C02032842D000
:102BD0004CE0D4F8941204F11400022935D1D0E964
:102BE00002639E4206D9F21A826039462046FFF7F8
:102BF00051FE0FE0B34214D14068984211D3D4F88B
:102C0000981288420DD2002211462046FFF742FE5C
:102C1000C4F8985200231A461946204600F002F9DB
:102C200013E094F89C02032808D1D4F8B802C168D4
:102C300021B1C4F8D452C16820468847802120467B
:102C400000F07AF92046FFF738FE94F8A00268B148
:102C500084F8A0520AE0D4F8B802426932B1C4F84C
:102C6000D452426920469047002800D10020BDE898
:102C7000F08170B513460446002221B194F89C02FD
:102C8000032830D03AE0D4F8941204F5AA7003294E
:102C900034D1D0E902518D420AD96A1A82600846BD
:102CA000824200D3024619462046FFF7EBFD25E09D
:102CB00094F8AA0210F01F0003D0012802D00228C5
:102CC00000D0002294F89C02032808D1D4F8B8025E
:102CD000016921B1C4F8D422016920468847204601
:102CE000FFF703FE0AE0D4F8B802836933B1C4F8F1
:102CF000D422826920469047002800D1002070BD70
:102D00000020704710B50024012180F89C12D0F8F3
:102D1000B82222B152680179904700B103242046BD
:102D200010BD10B5D0F8C802FDF763FEBDE8104035
:102D3000FFF713BFD0F8C802FDF775BE10B50178D4
:102D400039BB15490222C1F80805C0F8C8124FF076
:102D5000A0400860042048600020C1E90320C1E9C8
:102D6000062008624862C86208630846FEF7CAF98E
:102D700008B1FDF7ECFB80210748FDF796FD4022E6
:102D800000210548FDF795FD802201210248FDF74D
:102D900090FD002010BD000080C601200A0601F051
:102DA0007F01D0F8C80201EBC10100EB810002D520
:102DB00090F83E00704790F87E02704710B5D0F84A
:102DC000D42200EB8202D2F8B82222B190F89C32D1
:102DD000032B02D004E0032010BD126A02B1904719
:102DE000002010BD10B5D0F8D42200EB8202D2F83A
:102DF000B82222B190F89C32032B02D004E00320C9
:102E000010BD526A02B19047002010BD10B51C469B
:102E10001346D0F8C8022246FDF70EFEBDE810406A
:102E2000FFF79BBE10B5D0F8C802FDF735FEBDE830
:102E30001040FFF792BE2DE9F0410026012504461F
:102E400080F89C52C4F894626660C4F8A46280F86A
:102E5000A062D0F8B80230B1426822B10021204609
:102E6000904700B103260022402311462046FFF779
:102E7000CDFF4027A4F864513B4600228021204624
:102E8000C4F86071FFF7C2FFA58430462762BDE831
:102E9000F08190F89C12042903D190F89D1280F8DB
:102EA0009C120020704710B590F89C12032905D1A0
:102EB000D0F8B81211B1C96901B18847002010BD1E
:102EC00001740020704710B5D0F8C802FEF7ECF985
:102ED000BDE81040FFF741BE70B5044600F2AA20DD
:102EE000054600F0AAF90120C4F89402B4F8B00233
:102EF000C4F8980294F8AA0210F01F010AD0012920
:102F00000ED0022912D000F080012046BDE87040AA
:102F100000F012B829462046BDE8704000F028BAFB
:102F200029462046BDE8704000F068BB294620468F
:102F3000BDE8704000F0B2BA10B5D0F8C802FDF795
:102F4000CFFDBDE81040FFF708BE10B5D0F8C802AD
:102F5000FEF7C5F9BDE81040FFF7FFBD90F89C12E1
:102F600080F89D12042180F89C120020704710B553
:102F7000D0F8C802FDF7EEFDBDE81040FFF7EDBD4B
:102F800010B5FEF76DFD002010BD10B5FEF78BFDEE
:102F9000002010BD70B51B4D04466978FFF705FE93
:102FA0006878002600F00F0000EB800004EB800042
:102FB000A0F8646129782046FFF7F7FD287800F033
:102FC0000F0000EB800004EB80008684D4F8D4026C
:102FD00004EB8000D0F8C00290B12046FEF786FDD9
:102FE000D4F8D40204EB8000D0F8C00200F03FFB1C
:102FF000D4F8D40204EB8000C0F8C062C4F8BC620C
:10300000002070BDBCC001200A210180004870472B
:10301000E0C0012070B5054681210848FFF755FD45
:10302000044601210548FFF750FD402104B1A1806D
:1030300000B1818020202880004870BDC0C00120E0
:1030400070B5054681210948FFF73FFD044601217F
:103050000648FFF73AFD4FF4007104B1A18000B1BA
:10306000818020202880014870BD0000C0C0012060
:1030700070B5054681210848FFF727FD0446012168
:103080000548FFF722FD402104B1A18000B18180F5
:1030900020202880004870BDC0C001202DE9F041EB
:1030A00004464FF41D7000F0E3FA70B3D4F8D41264
:1030B000244D04EB81010126C1F8C002C4F8BC0212
:1030C000207C60B34023022269782046FFF79EFEF1
:1030D0006878402300F00F0000EB800004EB8000D4
:1030E000A0F86461022229782046FFF78FFE287835
:1030F00000F00F0000EB800004EB80008684204687
:10310000FEF700FD0020BDE8F081FFE7D4F8D412FF
:10311000002004EB8101C1F8C0020220F3E74FF464
:1031200000773B46022269782046FFF76FFE6878F9
:103130003B4600F00F0000EB800004EB8000A0F89D
:103140006461CFE7BCC0012039B1D0F8D42200EBD4
:103150008200C0F8C4120020704703207047F8B501
:103160000646D0F8D4020C4606EB80010025D1F8C3
:10317000C072ADF8005037B1207810F0600223D053
:10318000202A40D101E00320F8BD6278FE2A02D057
:10319000FF2A38D10EE0628882BBE288012A32D150
:1031A000000630D5D1F8C402806980470122394633
:1031B00038601FE0618809BBE188F9B9000622D4B4
:1031C0003046FEF7D3FC23E0607830B1012824D0EC
:1031D0000A2809D00B2816D111E096F89C02032882
:1031E00011D10222694605E096F89C0203280AD113
:1031F0000122391D3046FFF76BFB09E003E096F82A
:103200009C02032806D021463046FFF74BFB0325DE
:103210002846F8BDA0787860FAE796F89C02032863
:10322000F6D160880028F3D121793046FFF779FD87
:1032300021793046FEF7ECFBEAE770B5054611F858
:10324000010B2870087868704C1C2046FFF7B3FA11
:103250006880A41C2046FFF7AEFAA880A01CFFF7E8
:10326000AAFAE88070BD38B504460020ADF8000029
:10327000A1B1C4F8B812D4F8D40204EB8000D0F89D
:10328000B802C16A19B168468847C4F8D002D4F8B8
:10329000D802401CC4F8D802002038BD032038BD35
:1032A00002460020D2F8B832002B02D01B6810462C
:1032B000184770472DE9F04188462B4E8978002544
:1032C00004463170012906D941462046FFF7EAFA43
:1032D0000320BDE8F08194F89C02022702280CD05C
:1032E00003281DD041462046FFF7DCFA31782046FE
:1032F000FFF7BAFA03252846EBE789B32046616059
:10330000FFF7CEFF050004D041462046FFF7CAFA7A
:103310001DE02046FFF7E9FA032084F89C02EAE763
:10332000C1B1606888421BD0C1B22046FFF79CFA49
:10333000317820466160FFF7B3FF050010D04146A9
:103340002046FFF7AFFA21792046FFF78DFA84F87F
:103350009C72D0E784F89C7220466160FFF784FA83
:103360002046FFF7C2FAC6E780C00120FFF7EDBD97
:103370002DE9F0410A78002512F060020CD0202AD5
:1033800001D0402A7DD1D0F8D42200EB8202D2F8BD
:10339000B8229268904731E04B78002201260A2B30
:1033A0006FD2DFE803F041666E586E08056E2D2976
:1033B000FFF718FB67E004468888D8B9C888C8B901
:1033C0004888802816D200F07F0794F89C020328D2
:1033D00010D084F89E7239462046FFF774FD2046CF
:1033E000FFF783FA1FB1022084F89C024BE084F8B7
:1033F0009C6248E0204644E0FFF75CFF054642E05F
:10340000CB88012B3DD190F89C32012B04D0022BAC
:1034100002D0032B35D104E08260012200F10801C3
:1034200016E00122011D13E090F89C22012A03D02E
:10343000022A01D0032A24D1CA88022A21D1C660D7
:10344000D0F8A41209B10321C160022200F10C01DD
:10345000FFF73EFA17E04A88012A02D0022A03D079
:103460000FE0C0F8A46216E08988090A80F8A0126B
:1034700011E090F89C32012B08D0022B06D0032BD0
:1034800004D0FFF70FFA2846BDE8F08149880129EA
:10349000F9D1C0F8A422FFF728FAF4E72DE9F041AA
:1034A000054608780C790E464FF0000810F06000D1
:1034B0000BD0202801D040286AD121462846FFF7AA
:1034C000DDF9FF2800D0D8B395E07078C8B30128A3
:1034D00024D003285CD195F89C02022802D003284E
:1034E00056D10CE0002C53D0802C51D021462846D8
:1034F000FFF722FD80212846FFF71EFD7BE0708844
:1035000040B93CB1802C05D0C88818B9214628465E
:10351000FFF712FD2846FFF7E8F96CE095F89C02EA
:103520000228DFD0032863D1708880BB600603D0F7
:1035300021462846FFF730FB2846FFF7D6F9BCE7BF
:1035400000E00AE0C5F8D402D5F8B8028268F2B10A
:1035500031462846904780464DE095F89C0200276A
:10356000022802D0032843D113E00CB1802C3FD1B4
:10357000200604F07F0000EB800005EB800101D500
:10358000143101E001F5AA7102220F602CE032E053
:103590002EE0200604F00F0000EB800005EB800019
:1035A00009D5808C20B304F07F0000EB800005EB90
:1035B000800614360AE0B0F86401C8B104F07F0058
:1035C00000EB800005EB800606F5AA764CB1802C56
:1035D00007D021462846FFF7E1FB10B101203060FB
:1035E00000E03760022231462846FFF771F902E019
:1035F0002846FFF757F94046BDE8F08170B505460B
:10360000087800240E4610F0600003D0202801D076
:10361000402827D195F89C02012803D0022801D028
:1036200003281FD1B088C1B201291AD8C1B22846D7
:10363000FFF726F9FF280CD058B9D5F8B8128A68D8
:103640003AB1C5F8D4028A68314628469047044604
:1036500000E00324F088204307D12846FFF745F90E
:1036600003E031462846FFF71DF9204670BD70473C
:103670000048704708C4012070B50A78012302F0A1
:103680000F054E78AB401B4CD0F81C58012E17D0BC
:1036900045EA0343C0F81C3800EB4210D0F8002B79
:1036A00012040BD4D0F8002B8B890979C3F30A03D9
:1036B0001A4344EA81410A43C0F8002B002070BD40
:1036C0009BB21D43C0F81C5800EB4210D0F80039E3
:1036D0001B04F3D4D0F800398D890979C5F30A05A4
:1036E00089042B4341EA82510B432343C0F800393C
:1036F000E4E7000000800010D0F800196FF30A0121
:10370000C0F80019D0F8041841F48071C0F804180A
:103710000020704770B5044606990A9E049D0D98D6
:10372000012916D0E06840F04000E060204600F03B
:103730002BF8A16B1EB321F48031A163012D07D1B9
:10374000A16841F00601A160A16841F02001A160DB
:1037500070BDA16B21F48031A163E168094A114079
:10376000E160E16821F44011E160012803D1E068E3
:1037700040F48010E060204600F006F8DEE741F4F7
:103780008031DAE7BFFFBDFF08B500220D49009286
:10379000009B5B1C00938B420CD80369002BF7DA6B
:1037A0000092026942F001020261009A521C0092EA
:1037B0008A4201D9032008BD0269D207F5D1002051
:1037C00008BD0000400D030030B54C780A78012395
:1037D00000EB4212012C2CD0D2F8004B002C0BDA5B
:1037E000D2F8004B44F00064C2F8004BD2F8004B12
:1037F00044F08044C2F8004BD0F83C580C7804F0F8
:103800000F0403FA04F425EA0444C0F83C48D0F855
:103810001C48097801F00F018B4024EA0341C0F8ED
:103820001C18D2F8000B19490840C2F8000B002000
:1038300030BDD2F80049002C0BDAD2F8004944F030
:103840000064C2F80049D2F8004944F08044C2F84C
:103850000049D0F83C480D7805F00F0503FA05F54E
:10386000ADB2AC43C0F83C48D0F81C48097801F030
:103870000F018B4099B28C43C0F81C48D2F8000964
:1038800003490840C2F80009D1E700000078F3EFCF
:10389000007833ECD0F8001E21F00301C0F8001EC0
:1038A000D0F8041821F00201C0F804180020704775
:1038B000D0F8001E21F00301C0F8001ED0F8041853
:1038C00041F00201C0F80418002070472DE9F04FC4
:1038D00000250E460446DDF82CC0DDF824B0109F0C
:1038E0002846294604EB8002C2F80411401C0F2828
:1038F000F8D32046C7B1806B20F40012A263A06BFE
:1039000040F40022A26308468846C4F8000ED4F8AA
:1039100000182046C4F80018BCF1010F16D0D0F8EA
:10392000001841F0030116E0D0F8040840F002024C
:10393000C4F80428A06B40F40012A263A06B20F42A
:103940000022A263A06B20F48022DBE7D0F80018ED
:103950000BB141F00101C0F80018102100F0EEFA9F
:1039600000B10125204600F0CBFA00B10125404608
:10397000C4F81088C4F81488C4F81C8800214FF0DB
:1039800000694FF0904A4FF67F3314E004EB411288
:10399000D2F800C9BCF1000F06DA11B1C2F800A9D3
:1039A00004E0C4F8009901E0C2F80009C2F8100967
:1039B000C2F80839491C8E42E8D8002115E000BF42
:1039C00004EB4112D2F800CBBCF1000F06DA11B1C2
:1039D000C2F800AB04E0C4F8009B01E0C2F8000BA1
:1039E000C2F8100BC2F8083B491C8E42E8D8D4F844
:1039F000101821F48072C4F81028A0616FF0804084
:103A00006061BBF1000F03D1A06940F01000A0611C
:103A1000A06909490843A0610C9818B1A06940F059
:103A20000800A061012F03D1A06904490843A061E7
:103A30002846BDE8F08F000000383C8004000040BC
:103A4000816821F0010181600020704770B50D7818
:103A50004E78444CEBB200EB4313012E21D0D3F847
:103A6000100B6FF31200C3F8100BD3F8100B2040AB
:103A7000C3F8100B886908B1C8688861C868C86154
:103A8000D3F8100B40F40020C3F8100BD3F8100B40
:103A9000CC69C4F312042043C3F8100B012A55D09B
:103AA00058E08E69002ED3F8106932D06FF31206F9
:103AB000C3F81069D3F810692640C3F810698E69FD
:103AC000CC68A64200D98C61D3F8104944F4002494
:103AD000C3F81049D3F810498E69C6F3120634436F
:103AE000C3F81049012A22D000EB4512D2F8003960
:103AF00043F00443C2F800398A6932B3D0F834285D
:103B0000097801F00F03012199400A43C0F83428D5
:103B100026E02640C3F81069D3F8104944F4002485
:103B2000C3F81049D3F810496FF31204D8E7496974
:103B300019B100EB4512C2F8141900EB4510D0F88A
:103B4000001941F00441C0F8001909E0086908B102
:103B5000C3F8140BD3F8000B40F00440C3F8000B7B
:103B6000002070BDFFFF07E010B5036C134CA342AB
:103B700003D9D0F8003B002B1EDB0023C0F8103B1C
:103B8000D0F8103B43F40023C0F8103BD0F8103BB2
:103B900043F01803C0F8103BD0F8103B43F0C0438B
:103BA000C0F8103B012907D1C0F8142BD0F8001B36
:103BB00041F08021C0F8001B002010BD0A30544F96
:103BC0004A780B78012A00EB43100BD0D0F8002B79
:103BD00022F40012C0F8002B0979032914D002291D
:103BE00012D017E0D0F8002922F40012C0F8002902
:103BF0000979032901D002290CD1D0F8001941F02C
:103C00008051C0F8001905E0D0F8001B41F0805148
:103C1000C0F8001B002070470A784B78D1B200EB47
:103C20004110012B12D0D0F8001B002906DB2AB16D
:103C3000D0F8001B21F08041C0F8001BD0F8001B19
:103C400041F40011C0F8001B00207047D0F80019A3
:103C5000002906DB2AB1D0F8001921F08041C0F814
:103C60000019D0F8001941F40011C0F80019EBE771
:103C7000F8B50C784F78764DE3B26FF0604600EB04
:103C80004313012F27D0D3F8104B6FF31204C3F85E
:103C9000104BD3F8104B2C40C3F8104B8D69002DFE
:103CA00075D0CC6825446D1EB5FBF4F5ADB26C4300
:103CB000CC61D3F8104B06EAC5452C43C3F8104B32
:103CC000D3F8104BCD69C5F312052C43C3F8104B44
:103CD000012A71D0A4E08F691FB3D3F810796FF374
:103CE0001207C3F81079D3F810792F40C3F8107970
:103CF0008F69CD682F447F1EB7FBF5F506EAC545F1
:103D0000D3F810693543C3F81059D3F810598E69A8
:103D1000C6F312063543C3F810590D79012D10D0A2
:103D20001BE0D3F810692E40C3F81069D3F810597E
:103D300045F40025C3F81059D3F810596FF3120554
:103D400009E0D3F8105925F0C045C3F81059D3F84D
:103D5000105945F00055C3F81059012A18D000EB4E
:103D60004413D3F8004944F00444C3F800490C79E3
:103D7000012C2FD08A6962B3D0F83428097801F079
:103D80000F03012199400A43C0F834285EE036E071
:103D90004A691AB100EB4413C3F8142909790129BF
:103DA0000FD1D0F80818C90500EB4411D1F800294B
:103DB00003D442F0005202E02EE042F08052C1F8FB
:103DC000002900EB4410D0F8001941F00441C0F87C
:103DD00000193BE0D0F80848E405D3F8004902D4C4
:103DE00044F0005401E044F08054C3F800490092CC
:103DF0000A8B93B20A78096900F0D0F926E0D3F86B
:103E0000104BCD68C5F312052C43C3F8104BD3F803
:103E1000104B44F4002459E70A690AB1C3F8142B83
:103E2000097901290CD1D0F80808C005D3F8000B96
:103E300002D440F0005001E040F08050C3F8000B85
:103E4000D3F8000B40F00440C3F8000B0020F8BD8D
:103E5000FFFF07E038B50022009213464D780A783C
:103E600042F2107400EB4212012D19D0D2F8005B1F
:103E7000002D3CDAD2F8005B45F00065C2F8005B2B
:103E80000A7800EB4212D2F8005B45F08045C2F898
:103E9000005B009A521C0092A24221D9012326E025
:103EA000D2F80059002D22DAD2F8005945F0006509
:103EB000C2F800590A7800EB4212D2F8005945F0D6
:103EC0008045C2F80059009A521C0092A242E5D8DF
:103ED0000A7800EB4212D2F80029002AF3DB06E050
:103EE0000A7800EB4212D2F8002B002AD1DB1846E8
:103EF00038BD816841F001018160002070470000F9
:103F000008B500220C490092009B5B1C00938B4279
:103F10000AD80369002BF7DA009210220261009A96
:103F2000521C00928A4201D9032008BD0269D206C0
:103F3000F5D4002008BD0000400D030018B5002393
:103F40000D4A0093009C641C009494420CD80469B0
:103F5000002CF7DA0093202343EA811101610099D4
:103F6000491C0091914201D9032018BD01698906BD
:103F7000F5D4002018BD0000400D0300D0F808085B
:103F800010F0060004D0022803D0062801D00F202C
:103F9000704702207047406900F001007047D0F878
:103FA0001818D0F81C08084080B27047D0F81818CC
:103FB000D0F81C080840000C704710B5D0F8103835
:103FC000D0F8342801F00F0400EB4110E24002F079
:103FD0000102D0F8080943EAC212104010BD00EBFC
:103FE0004111D1F8081BD0F8140808407047416906
:103FF00080690840704730B503460846940802F0CF
:104000000301002203F5805303E01D6840F8045BC0
:10401000521CA242F9D300290BD01C680022D50003
:1040200024FA05F3491E521C090400F8013B090C4F
:10403000F5D130BD70B50446C068002520F0C04001
:10404000E060012901D079B120E0E06840F0005043
:10405000E0600120FCF77EFA60696D1C10F0010F32
:1040600010D1322DF5D30DE0E06840F08040E060E3
:104070000120FCF76FFA60696D1C10F0010F01D090
:10408000322DF5D3322D01D0002070BD012070BD3E
:10409000D0F8002822F4FE62C0F80028D0F80028EA
:1040A0004FF4FE6303EA01110A43C0F80028002020
:1040B00070470000022A3ED1264A274B0A449A4202
:1040C00001D20F2138E0254A254B0A449A4201D2F9
:1040D0000E2131E0234A244B0A449A4201D20D2199
:1040E0002AE0224A224B0A449A4201D20C2123E0C0
:1040F000204A214B0A449A4201D20B211CE01F4A5C
:104100001F4B0A449A4201D20A2115E01D4A1E4B58
:104110000A449A420FD31D4A1D4B0A449A4201D2C7
:10412000082109E01B4A11441B4A914201D2072190
:1041300002E0062100E00921C26822F47052C26048
:10414000C2684FF4705303EA81210A43C260002021
:1041500070470000405327FF00350C00401E1BFF36
:1041600040420F0000DC0BFF804F1200808CF9FEF4
:1041700020D6130060B6E5FE60E3160000D3CEFE45
:1041800040771B00C05BB3FEC091210000CA91FEC6
:1041900020753800E05459FEE09C410010B5029CA7
:1041A00074B9DB1C9C0800EB0230002300F5805042
:1041B00004E000BF51F8042B02605B1CA342F9D35A
:1041C000002010BDFEE70907090E002804DB00F1FE
:1041D000E02080F80014704700F00F0000F1E020AC
:1041E00080F8141D7047000008B5FCF7CBFAFEF705
:1041F000E9FA0A48016841F080010160016801F0B4
:1042000080010091016841F001010160006800F047
:1042100001000090FDF7FAFCFEE700003038024094
:104220004FF04070E1EE100A7047008002021F005C
:10423000000053544D202020202050726F6475637D
:1042400074202020202020202020302E303100001B
:104250000000000000000102030406070809000036
:104260009042000800C001202C010000C401000899
:104270009042000800000020009201002002000887
:104280003C4300082CC10120C4100000200200089B
:104290001321291B0851041A5D041A85041AAD0460
:1042A0001A01041A2D04170403090412013202161C
:1042B0004083042A57260201020301031A1A03133A
:1042C00077271B0865041A7B041A7F041A85041AD1
:1042D0009D041A73041B2A425C3182105324F41388
:1042E0009D301408952F14085F3182081A81101A26
:1042F0008B04C11A41281A15041A71041A09041AE8
:10430000814D140902202008010104C03209042053
:104310000B020806500507058102402C070501071E
:104320004B0A06C02978190A1A80021B082001329C
:0C4330002203120812622609121B110061
:040000050800018965
:00000001FF
